{
  "address": "0x610178dA211FEF7D417bC0e6FeD39F05609AD788",
  "abi": [
    {
      "inputs": [
        {
          "internalType": "contract IERC20",
          "name": "_apes",
          "type": "address"
        }
      ],
      "stateMutability": "nonpayable",
      "type": "constructor"
    },
    {
      "anonymous": false,
      "inputs": [
        {
          "indexed": true,
          "internalType": "address",
          "name": "user",
          "type": "address"
        },
        {
          "indexed": true,
          "internalType": "uint256",
          "name": "pid",
          "type": "uint256"
        },
        {
          "indexed": false,
          "internalType": "uint256",
          "name": "amount",
          "type": "uint256"
        },
        {
          "indexed": true,
          "internalType": "address",
          "name": "to",
          "type": "address"
        }
      ],
      "name": "Deposit",
      "type": "event"
    },
    {
      "anonymous": false,
      "inputs": [
        {
          "indexed": true,
          "internalType": "address",
          "name": "user",
          "type": "address"
        },
        {
          "indexed": true,
          "internalType": "uint256",
          "name": "pid",
          "type": "uint256"
        },
        {
          "indexed": false,
          "internalType": "uint256",
          "name": "amount",
          "type": "uint256"
        },
        {
          "indexed": true,
          "internalType": "address",
          "name": "to",
          "type": "address"
        }
      ],
      "name": "EmergencyWithdraw",
      "type": "event"
    },
    {
      "anonymous": false,
      "inputs": [
        {
          "indexed": true,
          "internalType": "address",
          "name": "user",
          "type": "address"
        },
        {
          "indexed": true,
          "internalType": "uint256",
          "name": "pid",
          "type": "uint256"
        },
        {
          "indexed": false,
          "internalType": "uint256",
          "name": "amount",
          "type": "uint256"
        }
      ],
      "name": "Harvest",
      "type": "event"
    },
    {
      "anonymous": false,
      "inputs": [
        {
          "indexed": false,
          "internalType": "uint256",
          "name": "apesPerSecond",
          "type": "uint256"
        }
      ],
      "name": "LogApesPerSecond",
      "type": "event"
    },
    {
      "anonymous": false,
      "inputs": [
        {
          "indexed": true,
          "internalType": "uint256",
          "name": "pid",
          "type": "uint256"
        },
        {
          "indexed": false,
          "internalType": "uint256",
          "name": "allocPoint",
          "type": "uint256"
        },
        {
          "indexed": true,
          "internalType": "contract IERC20",
          "name": "lpToken",
          "type": "address"
        },
        {
          "indexed": true,
          "internalType": "contract IRewarder",
          "name": "rewarder",
          "type": "address"
        }
      ],
      "name": "LogPoolAddition",
      "type": "event"
    },
    {
      "anonymous": false,
      "inputs": [
        {
          "indexed": true,
          "internalType": "uint256",
          "name": "pid",
          "type": "uint256"
        },
        {
          "indexed": false,
          "internalType": "uint256",
          "name": "allocPoint",
          "type": "uint256"
        },
        {
          "indexed": true,
          "internalType": "contract IRewarder",
          "name": "rewarder",
          "type": "address"
        },
        {
          "indexed": false,
          "internalType": "bool",
          "name": "overwrite",
          "type": "bool"
        }
      ],
      "name": "LogSetPool",
      "type": "event"
    },
    {
      "anonymous": false,
      "inputs": [
        {
          "indexed": true,
          "internalType": "uint256",
          "name": "pid",
          "type": "uint256"
        },
        {
          "indexed": false,
          "internalType": "uint64",
          "name": "lastRewardTime",
          "type": "uint64"
        },
        {
          "indexed": false,
          "internalType": "uint256",
          "name": "lpSupply",
          "type": "uint256"
        },
        {
          "indexed": false,
          "internalType": "uint256",
          "name": "accApesPerShare",
          "type": "uint256"
        }
      ],
      "name": "LogUpdatePool",
      "type": "event"
    },
    {
      "anonymous": false,
      "inputs": [
        {
          "indexed": true,
          "internalType": "address",
          "name": "previousOwner",
          "type": "address"
        },
        {
          "indexed": true,
          "internalType": "address",
          "name": "newOwner",
          "type": "address"
        }
      ],
      "name": "OwnershipTransferred",
      "type": "event"
    },
    {
      "anonymous": false,
      "inputs": [
        {
          "indexed": true,
          "internalType": "address",
          "name": "user",
          "type": "address"
        },
        {
          "indexed": true,
          "internalType": "uint256",
          "name": "pid",
          "type": "uint256"
        },
        {
          "indexed": false,
          "internalType": "uint256",
          "name": "amount",
          "type": "uint256"
        },
        {
          "indexed": true,
          "internalType": "address",
          "name": "to",
          "type": "address"
        }
      ],
      "name": "Withdraw",
      "type": "event"
    },
    {
      "inputs": [],
      "name": "Apes",
      "outputs": [
        {
          "internalType": "contract IERC20",
          "name": "",
          "type": "address"
        }
      ],
      "stateMutability": "view",
      "type": "function"
    },
    {
      "inputs": [
        {
          "internalType": "uint256",
          "name": "allocPoint",
          "type": "uint256"
        },
        {
          "internalType": "contract IERC20",
          "name": "_lpToken",
          "type": "address"
        },
        {
          "internalType": "contract IRewarder",
          "name": "_rewarder",
          "type": "address"
        }
      ],
      "name": "add",
      "outputs": [],
      "stateMutability": "nonpayable",
      "type": "function"
    },
    {
      "inputs": [],
      "name": "apesPerSecond",
      "outputs": [
        {
          "internalType": "uint256",
          "name": "",
          "type": "uint256"
        }
      ],
      "stateMutability": "view",
      "type": "function"
    },
    {
      "inputs": [
        {
          "internalType": "bytes[]",
          "name": "calls",
          "type": "bytes[]"
        },
        {
          "internalType": "bool",
          "name": "revertOnFail",
          "type": "bool"
        }
      ],
      "name": "batch",
      "outputs": [
        {
          "internalType": "bool[]",
          "name": "successes",
          "type": "bool[]"
        },
        {
          "internalType": "bytes[]",
          "name": "results",
          "type": "bytes[]"
        }
      ],
      "stateMutability": "payable",
      "type": "function"
    },
    {
      "inputs": [],
      "name": "claimOwnership",
      "outputs": [],
      "stateMutability": "nonpayable",
      "type": "function"
    },
    {
      "inputs": [
        {
          "internalType": "uint256",
          "name": "pid",
          "type": "uint256"
        },
        {
          "internalType": "uint256",
          "name": "amount",
          "type": "uint256"
        },
        {
          "internalType": "address",
          "name": "to",
          "type": "address"
        }
      ],
      "name": "deposit",
      "outputs": [],
      "stateMutability": "nonpayable",
      "type": "function"
    },
    {
      "inputs": [
        {
          "internalType": "uint256",
          "name": "pid",
          "type": "uint256"
        },
        {
          "internalType": "address",
          "name": "to",
          "type": "address"
        }
      ],
      "name": "emergencyWithdraw",
      "outputs": [],
      "stateMutability": "nonpayable",
      "type": "function"
    },
    {
      "inputs": [
        {
          "internalType": "uint256",
          "name": "pid",
          "type": "uint256"
        },
        {
          "internalType": "address",
          "name": "to",
          "type": "address"
        }
      ],
      "name": "harvest",
      "outputs": [],
      "stateMutability": "nonpayable",
      "type": "function"
    },
    {
      "inputs": [
        {
          "internalType": "uint256",
          "name": "",
          "type": "uint256"
        }
      ],
      "name": "lpToken",
      "outputs": [
        {
          "internalType": "contract IERC20",
          "name": "",
          "type": "address"
        }
      ],
      "stateMutability": "view",
      "type": "function"
    },
    {
      "inputs": [
        {
          "internalType": "uint256[]",
          "name": "pids",
          "type": "uint256[]"
        }
      ],
      "name": "massUpdatePools",
      "outputs": [],
      "stateMutability": "nonpayable",
      "type": "function"
    },
    {
      "inputs": [
        {
          "internalType": "uint256",
          "name": "_pid",
          "type": "uint256"
        }
      ],
      "name": "migrate",
      "outputs": [],
      "stateMutability": "nonpayable",
      "type": "function"
    },
    {
      "inputs": [],
      "name": "migrator",
      "outputs": [
        {
          "internalType": "contract IMigratorChef",
          "name": "",
          "type": "address"
        }
      ],
      "stateMutability": "view",
      "type": "function"
    },
    {
      "inputs": [],
      "name": "owner",
      "outputs": [
        {
          "internalType": "address",
          "name": "",
          "type": "address"
        }
      ],
      "stateMutability": "view",
      "type": "function"
    },
    {
      "inputs": [
        {
          "internalType": "uint256",
          "name": "_pid",
          "type": "uint256"
        },
        {
          "internalType": "address",
          "name": "_user",
          "type": "address"
        }
      ],
      "name": "pendingApes",
      "outputs": [
        {
          "internalType": "uint256",
          "name": "pending",
          "type": "uint256"
        }
      ],
      "stateMutability": "view",
      "type": "function"
    },
    {
      "inputs": [],
      "name": "pendingOwner",
      "outputs": [
        {
          "internalType": "address",
          "name": "",
          "type": "address"
        }
      ],
      "stateMutability": "view",
      "type": "function"
    },
    {
      "inputs": [
        {
          "internalType": "contract IERC20",
          "name": "token",
          "type": "address"
        },
        {
          "internalType": "address",
          "name": "from",
          "type": "address"
        },
        {
          "internalType": "address",
          "name": "to",
          "type": "address"
        },
        {
          "internalType": "uint256",
          "name": "amount",
          "type": "uint256"
        },
        {
          "internalType": "uint256",
          "name": "deadline",
          "type": "uint256"
        },
        {
          "internalType": "uint8",
          "name": "v",
          "type": "uint8"
        },
        {
          "internalType": "bytes32",
          "name": "r",
          "type": "bytes32"
        },
        {
          "internalType": "bytes32",
          "name": "s",
          "type": "bytes32"
        }
      ],
      "name": "permitToken",
      "outputs": [],
      "stateMutability": "nonpayable",
      "type": "function"
    },
    {
      "inputs": [
        {
          "internalType": "uint256",
          "name": "",
          "type": "uint256"
        }
      ],
      "name": "poolInfo",
      "outputs": [
        {
          "internalType": "uint128",
          "name": "accApesPerShare",
          "type": "uint128"
        },
        {
          "internalType": "uint64",
          "name": "lastRewardTime",
          "type": "uint64"
        },
        {
          "internalType": "uint64",
          "name": "allocPoint",
          "type": "uint64"
        }
      ],
      "stateMutability": "view",
      "type": "function"
    },
    {
      "inputs": [],
      "name": "poolLength",
      "outputs": [
        {
          "internalType": "uint256",
          "name": "pools",
          "type": "uint256"
        }
      ],
      "stateMutability": "view",
      "type": "function"
    },
    {
      "inputs": [
        {
          "internalType": "uint256",
          "name": "",
          "type": "uint256"
        }
      ],
      "name": "rewarder",
      "outputs": [
        {
          "internalType": "contract IRewarder",
          "name": "",
          "type": "address"
        }
      ],
      "stateMutability": "view",
      "type": "function"
    },
    {
      "inputs": [
        {
          "internalType": "uint256",
          "name": "_pid",
          "type": "uint256"
        },
        {
          "internalType": "uint256",
          "name": "_allocPoint",
          "type": "uint256"
        },
        {
          "internalType": "contract IRewarder",
          "name": "_rewarder",
          "type": "address"
        },
        {
          "internalType": "bool",
          "name": "overwrite",
          "type": "bool"
        }
      ],
      "name": "set",
      "outputs": [],
      "stateMutability": "nonpayable",
      "type": "function"
    },
    {
      "inputs": [
        {
          "internalType": "uint256",
          "name": "_apesPerSecond",
          "type": "uint256"
        }
      ],
      "name": "setApesPerSecond",
      "outputs": [],
      "stateMutability": "nonpayable",
      "type": "function"
    },
    {
      "inputs": [
        {
          "internalType": "contract IMigratorChef",
          "name": "_migrator",
          "type": "address"
        }
      ],
      "name": "setMigrator",
      "outputs": [],
      "stateMutability": "nonpayable",
      "type": "function"
    },
    {
      "inputs": [],
      "name": "totalAllocPoint",
      "outputs": [
        {
          "internalType": "uint256",
          "name": "",
          "type": "uint256"
        }
      ],
      "stateMutability": "view",
      "type": "function"
    },
    {
      "inputs": [
        {
          "internalType": "address",
          "name": "newOwner",
          "type": "address"
        },
        {
          "internalType": "bool",
          "name": "direct",
          "type": "bool"
        },
        {
          "internalType": "bool",
          "name": "renounce",
          "type": "bool"
        }
      ],
      "name": "transferOwnership",
      "outputs": [],
      "stateMutability": "nonpayable",
      "type": "function"
    },
    {
      "inputs": [
        {
          "internalType": "uint256",
          "name": "pid",
          "type": "uint256"
        }
      ],
      "name": "updatePool",
      "outputs": [
        {
          "components": [
            {
              "internalType": "uint128",
              "name": "accApesPerShare",
              "type": "uint128"
            },
            {
              "internalType": "uint64",
              "name": "lastRewardTime",
              "type": "uint64"
            },
            {
              "internalType": "uint64",
              "name": "allocPoint",
              "type": "uint64"
            }
          ],
          "internalType": "struct MiniChefV2.PoolInfo",
          "name": "pool",
          "type": "tuple"
        }
      ],
      "stateMutability": "nonpayable",
      "type": "function"
    },
    {
      "inputs": [
        {
          "internalType": "uint256",
          "name": "",
          "type": "uint256"
        },
        {
          "internalType": "address",
          "name": "",
          "type": "address"
        }
      ],
      "name": "userInfo",
      "outputs": [
        {
          "internalType": "uint256",
          "name": "amount",
          "type": "uint256"
        },
        {
          "internalType": "int256",
          "name": "rewardDebt",
          "type": "int256"
        }
      ],
      "stateMutability": "view",
      "type": "function"
    },
    {
      "inputs": [
        {
          "internalType": "uint256",
          "name": "pid",
          "type": "uint256"
        },
        {
          "internalType": "uint256",
          "name": "amount",
          "type": "uint256"
        },
        {
          "internalType": "address",
          "name": "to",
          "type": "address"
        }
      ],
      "name": "withdraw",
      "outputs": [],
      "stateMutability": "nonpayable",
      "type": "function"
    },
    {
      "inputs": [
        {
          "internalType": "uint256",
          "name": "pid",
          "type": "uint256"
        },
        {
          "internalType": "uint256",
          "name": "amount",
          "type": "uint256"
        },
        {
          "internalType": "address",
          "name": "to",
          "type": "address"
        }
      ],
      "name": "withdrawAndHarvest",
      "outputs": [],
      "stateMutability": "nonpayable",
      "type": "function"
    }
  ],
  "transactionHash": "0xe8d3381713da03465cc91c1e4dbfa9328513084b0e5e74e6f3a1f4c841ff930a",
  "args": [
    "0xCf7Ed3AccA5a467e9e704C703E8D87F634fB0Fc9"
  ],
  "solcInputHash": "11c2a998d9d9c91e40a85e81c4f9b1d0",
  "bytecode": "0x60a06040523480156200001157600080fd5b5060405162002c3038038062002c30833981016040819052620000349162000089565b600080546001600160a01b0319163390811782556040519091907f8be0079c531659141344cd1fd0a4f28419497f9722a3daafe3b4186f6b6457e0908290a360601b6001600160601b031916608052620000b9565b6000602082840312156200009b578081fd5b81516001600160a01b0381168114620000b2578182fd5b9392505050565b60805160601c612b4f620000e1600039806107bb52806108b95280611a155250612b4f6000f3fe6080604052600436106101b75760003560e01c80636592b6bf116100ec5780638dbdbe6d1161008a578063c346253d11610064578063c346253d146104be578063d1abb907146104de578063d2423b51146104fe578063e30c39781461051f576101b7565b80638dbdbe6d1461045057806393f1a40b14610470578063ab7de0981461049e576101b7565b80637cd07e47116100c65780637cd07e47146103f15780638823a6341461040657806388bba42f1461041b5780638da5cb5b1461043b576101b7565b80636592b6bf1461039157806378ed5d1f146103b15780637c516e94146103d1576101b7565b806323cf3118116101595780634e71e0c8116101335780634e71e0c81461030f578063505a1a831461032457806351eb05a61461034457806357a5b58c14610371576101b7565b806323cf3118146102af5780632f940c70146102cf578063454b0608146102ef576101b7565b806314fcf9001161019557806314fcf900146102295780631526fe271461024b57806317caf6f11461027a57806318fccc761461028f576101b7565b8063078dfbe7146101bc578063081e3eda146101de5780630ad58d2f14610209575b600080fd5b3480156101c857600080fd5b506101dc6101d736600461217d565b610534565b005b3480156101ea57600080fd5b506101f3610623565b6040516102009190612a03565b60405180910390f35b34801561021557600080fd5b506101dc610224366004612459565b610629565b34801561023557600080fd5b5061023e6107b9565b6040516102009190612527565b34801561025757600080fd5b5061026b6102663660046123c4565b6107dd565b604051610200939291906129d9565b34801561028657600080fd5b506101f361081f565b34801561029b57600080fd5b506101dc6102aa3660046123f4565b610825565b3480156102bb57600080fd5b506101dc6102ca36600461230e565b6109bf565b3480156102db57600080fd5b506101dc6102ea3660046123f4565b610a0b565b3480156102fb57600080fd5b506101dc61030a3660046123c4565b610b2c565b34801561031b57600080fd5b506101dc610dd8565b34801561033057600080fd5b506101dc61033f3660046123c4565b610e65565b34801561035057600080fd5b5061036461035f3660046123c4565b610ecf565b60405161020091906129a0565b34801561037d57600080fd5b506101dc61038c366004612210565b611159565b34801561039d57600080fd5b506101f36103ac3660046123f4565b61118f565b3480156103bd57600080fd5b5061023e6103cc3660046123c4565b611389565b3480156103dd57600080fd5b506101dc6103ec366004612287565b6113b0565b3480156103fd57600080fd5b5061023e611424565b34801561041257600080fd5b506101f3611433565b34801561042757600080fd5b506101dc610436366004612486565b611439565b34801561044757600080fd5b5061023e6115a6565b34801561045c57600080fd5b506101dc61046b366004612459565b6115b5565b34801561047c57600080fd5b5061049061048b3660046123f4565b611740565b604051610200929190612a4b565b3480156104aa57600080fd5b506101dc6104b9366004612423565b611764565b3480156104ca57600080fd5b5061023e6104d93660046123c4565b61193a565b3480156104ea57600080fd5b506101dc6104f9366004612459565b611947565b61051161050c3660046121c7565b611b7a565b6040516102009291906125b9565b34801561052b57600080fd5b5061023e611d0a565b6000546001600160a01b031633146105675760405162461bcd60e51b815260040161055e90612818565b60405180910390fd5b8115610602576001600160a01b0383161515806105815750805b61059d5760405162461bcd60e51b815260040161055e90612732565b600080546040516001600160a01b03808716939216917f8be0079c531659141344cd1fd0a4f28419497f9722a3daafe3b4186f6b6457e091a3600080546001600160a01b0385166001600160a01b03199182161790915560018054909116905561061e565b600180546001600160a01b0319166001600160a01b0385161790555b505050565b60035490565b610631612115565b61063a84610ecf565b6000858152600660209081526040808320338452909152902081519192509061068c9064e8d4a51000906106789087906001600160801b0316611d19565b8161067f57fe5b6001840154919004611d56565b6001820155805461069d9085611da3565b81556005805460009190879081106106b157fe5b6000918252602090912001546001600160a01b0316905080156107375781546040516345fb1ba160e11b81526001600160a01b03831691638bf6374291610704918a9133918a9160009190600401612a0c565b600060405180830381600087803b15801561071e57600080fd5b505af1158015610732573d6000803e3d6000fd5b505050505b61076584866004898154811061074957fe5b6000918252602090912001546001600160a01b03169190611dc6565b836001600160a01b031686336001600160a01b03167f8166bf25f8a2b7ed3c85049207da4358d16edbed977d23fa2ee6f0dde3ec2132886040516107a99190612a03565b60405180910390a4505050505050565b7f000000000000000000000000000000000000000000000000000000000000000081565b600381815481106107ea57fe5b6000918252602090912001546001600160801b03811691506001600160401b03600160801b8204811691600160c01b90041683565b60075481565b61082d612115565b61083683610ecf565b6000848152600660209081526040808320338452909152812082518154939450909264e8d4a510009161087291906001600160801b0316611d19565b8161087957fe5b049050600061089d610898846001015484611d5690919063ffffffff16565b611eb4565b60018401839055905080156108e0576108e06001600160a01b037f0000000000000000000000000000000000000000000000000000000000000000168683611dc6565b6000600587815481106108ef57fe5b6000918252602090912001546001600160a01b0316905080156109745783546040516345fb1ba160e11b81526001600160a01b03831691638bf6374291610941918b9133918c91899190600401612a0c565b600060405180830381600087803b15801561095b57600080fd5b505af115801561096f573d6000803e3d6000fd5b505050505b86336001600160a01b03167f71bab65ced2e5750775a0613be067df48ef06cf92a496ebf7663ae0660924954846040516109ae9190612a03565b60405180910390a350505050505050565b6000546001600160a01b031633146109e95760405162461bcd60e51b815260040161055e90612818565b600280546001600160a01b0319166001600160a01b0392909216919091179055565b60008281526006602090815260408083203384529091528120805482825560018201839055600580549293919286908110610a4257fe5b6000918252602090912001546001600160a01b031690508015610ac7576040516345fb1ba160e11b81526001600160a01b03821690638bf6374290610a94908890339089906000908190600401612a0c565b600060405180830381600087803b158015610aae57600080fd5b505af1158015610ac2573d6000803e3d6000fd5b505050505b610ad984836004888154811061074957fe5b836001600160a01b031685336001600160a01b03167f2cac5e20e1541d836381527a43f651851e302817b71dc8e810284e69210c1c6b85604051610b1d9190612a03565b60405180910390a45050505050565b6002546001600160a01b0316610b545760405162461bcd60e51b815260040161055e906128b9565b600060048281548110610b6357fe5b60009182526020822001546040516370a0823160e01b81526001600160a01b03909116925082906370a0823190610b9e903090600401612527565b60206040518083038186803b158015610bb657600080fd5b505afa158015610bca573d6000803e3d6000fd5b505050506040513d601f19601f82011682018060405250810190610bee91906123dc565b60025460405163095ea7b360e01b81529192506001600160a01b038085169263095ea7b392610c2392169085906004016125a0565b602060405180830381600087803b158015610c3d57600080fd5b505af1158015610c51573d6000803e3d6000fd5b505050506040513d601f19601f82011682018060405250810190610c75919061224f565b5060025460405163ce5494bb60e01b81526000916001600160a01b03169063ce5494bb90610ca7908690600401612527565b602060405180830381600087803b158015610cc157600080fd5b505af1158015610cd5573d6000803e3d6000fd5b505050506040513d601f19601f82011682018060405250810190610cf9919061226b565b6040516370a0823160e01b81529091506001600160a01b038216906370a0823190610d28903090600401612527565b60206040518083038186803b158015610d4057600080fd5b505afa158015610d54573d6000803e3d6000fd5b505050506040513d601f19601f82011682018060405250810190610d7891906123dc565b8214610d965760405162461bcd60e51b815260040161055e90612761565b8060048581548110610da457fe5b9060005260206000200160006101000a8154816001600160a01b0302191690836001600160a01b0316021790555050505050565b6001546001600160a01b0316338114610e035760405162461bcd60e51b815260040161055e9061284d565b600080546040516001600160a01b03808516939216917f8be0079c531659141344cd1fd0a4f28419497f9722a3daafe3b4186f6b6457e091a3600080546001600160a01b039092166001600160a01b0319928316179055600180549091169055565b6000546001600160a01b03163314610e8f5760405162461bcd60e51b815260040161055e90612818565b60088190556040517f7c42d5d64a4521d5cc74c4599303fd3124762f8fdfc46ed512b98daeeab43c0390610ec4908390612a03565b60405180910390a150565b610ed7612115565b60038281548110610ee457fe5b60009182526020918290206040805160608101825292909101546001600160801b03811683526001600160401b03600160801b82048116948401859052600160c01b9091041690820152915042111561115457600060048381548110610f4657fe5b6000918252602090912001546040516370a0823160e01b81526001600160a01b03909116906370a0823190610f7f903090600401612527565b60206040518083038186803b158015610f9757600080fd5b505afa158015610fab573d6000803e3d6000fd5b505050506040513d601f19601f82011682018060405250810190610fcf91906123dc565b90508015611078576000610ff983602001516001600160401b031642611da390919063ffffffff16565b9050600060075461102c85604001516001600160401b031661102660085486611d1990919063ffffffff16565b90611d19565b8161103357fe5b04905061106a6110598461104c8464e8d4a51000611d19565b8161105357fe5b04611eda565b85516001600160801b031690611f03565b6001600160801b0316845250505b61108142611f32565b6001600160401b0316602083015260038054839190859081106110a057fe5b6000918252602091829020835191018054848401516040958601516001600160801b03199092166001600160801b039094169390931767ffffffffffffffff60801b1916600160801b6001600160401b0394851602176001600160c01b0316600160c01b93909116929092029190911790558301518351915185927f0fc9545022a542541ad085d091fb09a2ab36fee366a4576ab63714ea907ad3539261114a9290918691612a59565b60405180910390a2505b919050565b8060005b818110156111895761118084848381811061117457fe5b90506020020135610ecf565b5060010161115d565b50505050565b6000611199612115565b600384815481106111a657fe5b600091825260208083206040805160608101825291909301546001600160801b0380821683526001600160401b03600160801b8304811684860152600160c01b90920490911682850152888552600683528385206001600160a01b038916865290925291832082516004805494965091949216928890811061122457fe5b6000918252602090912001546040516370a0823160e01b81526001600160a01b03909116906370a082319061125d903090600401612527565b60206040518083038186803b15801561127557600080fd5b505afa158015611289573d6000803e3d6000fd5b505050506040513d601f19601f820116820180604052508101906112ad91906123dc565b905083602001516001600160401b0316421180156112ca57508015155b156113505760006112f185602001516001600160401b031642611da390919063ffffffff16565b9050600060075461131e87604001516001600160401b031661102660085486611d1990919063ffffffff16565b8161132557fe5b04905061134b8361133b8364e8d4a51000611d19565b8161134257fe5b86919004611f5b565b935050505b6001830154835461137e916108989164e8d4a51000906113709087611d19565b8161137757fe5b0490611d56565b979650505050505050565b6004818154811061139657fe5b6000918252602090912001546001600160a01b0316905081565b60405163d505accf60e01b81526001600160a01b0389169063d505accf906113e8908a908a908a908a908a908a908a9060040161255f565b600060405180830381600087803b15801561140257600080fd5b505af1158015611416573d6000803e3d6000fd5b505050505050505050505050565b6002546001600160a01b031681565b60085481565b6000546001600160a01b031633146114635760405162461bcd60e51b815260040161055e90612818565b6114a28361149c6003878154811061147757fe5b60009182526020909120015460075490600160c01b90046001600160401b0316611da3565b90611f5b565b6007556114ae83611f32565b600385815481106114bb57fe5b9060005260206000200160000160186101000a8154816001600160401b0302191690836001600160401b03160217905550801561152f57816005858154811061150057fe5b9060005260206000200160006101000a8154816001600160a01b0302191690836001600160a01b031602179055505b8061155b576005848154811061154157fe5b6000918252602090912001546001600160a01b031661155d565b815b6001600160a01b0316847f95895a6ab1df54420d241b55243258a33e61b2194db66c1179ec521aae8e18658584604051611598929190612a3b565b60405180910390a350505050565b6000546001600160a01b031681565b6115bd612115565b6115c684610ecf565b60008581526006602090815260408083206001600160a01b038716845290915290208054919250906115f89085611f5b565b8155815161162f9064e8d4a510009061161b9087906001600160801b0316611d19565b8161162257fe5b6001840154919004611f7e565b816001018190555060006005868154811061164657fe5b6000918252602090912001546001600160a01b0316905080156116cc5781546040516345fb1ba160e11b81526001600160a01b03831691638bf6374291611699918a918991829160009190600401612a0c565b600060405180830381600087803b1580156116b357600080fd5b505af11580156116c7573d6000803e3d6000fd5b505050505b6116fc33308760048a815481106116df57fe5b6000918252602090912001546001600160a01b0316929190611fc4565b836001600160a01b031686336001600160a01b03167f02d7e648dd130fc184d383e55bb126ac4c9c60e8f94bf05acdf557ba2d540b47886040516107a99190612a03565b60066020908152600092835260408084209091529082529020805460019091015482565b6000546001600160a01b0316331461178e5760405162461bcd60e51b815260040161055e90612818565b60075461179b9084611f5b565b6007556004805460018181019092557f8a35acfbc15ff81a39ae7d344fd709f28e8600b4aa8c65c6b64bfe7fe36bd19b0180546001600160a01b038086166001600160a01b03199283161790925560058054938401815560009081527f036b6384b5eca791c62761152d0c79bb0604c104a5fb6f4eb0703f3154bb3db090930180549285169290911691909117905560408051606081019091529081526003906020810161184842611f32565b6001600160401b0316815260200161185f86611f32565b6001600160401b039081169091528254600181810185556000948552602094859020845192018054958501516040909501518416600160c01b026001600160c01b0395909416600160801b0267ffffffffffffffff60801b196001600160801b039094166001600160801b0319909716969096179290921694909417929092161790556004546001600160a01b0380841692908516916118fe91611da3565b7f81ee0f8c5c46e2cb41984886f77a84181724abb86c32a5f6de539b07509d45e58660405161192d9190612a03565b60405180910390a4505050565b6005818154811061139657fe5b61194f612115565b61195884610ecf565b6000858152600660209081526040808320338452909152812082518154939450909264e8d4a510009161199491906001600160801b0316611d19565b8161199b57fe5b04905060006119ba610898846001015484611d5690919063ffffffff16565b90506119f564e8d4a510006119e586600001516001600160801b031689611d1990919063ffffffff16565b816119ec57fe5b84919004611d56565b60018401558254611a069087611da3565b8355611a3c6001600160a01b037f0000000000000000000000000000000000000000000000000000000000000000168683611dc6565b600060058881548110611a4b57fe5b6000918252602090912001546001600160a01b031690508015611ad05783546040516345fb1ba160e11b81526001600160a01b03831691638bf6374291611a9d918c9133918c91899190600401612a0c565b600060405180830381600087803b158015611ab757600080fd5b505af1158015611acb573d6000803e3d6000fd5b505050505b611ae2868860048b8154811061074957fe5b856001600160a01b031688336001600160a01b03167f8166bf25f8a2b7ed3c85049207da4358d16edbed977d23fa2ee6f0dde3ec21328a604051611b269190612a03565b60405180910390a487336001600160a01b03167f71bab65ced2e5750775a0613be067df48ef06cf92a496ebf7663ae066092495484604051611b689190612a03565b60405180910390a35050505050505050565b606080836001600160401b0381118015611b9357600080fd5b50604051908082528060200260200182016040528015611bbd578160200160208202803683370190505b509150836001600160401b0381118015611bd657600080fd5b50604051908082528060200260200182016040528015611c0a57816020015b6060815260200190600190039081611bf55790505b50905060005b84811015611d01576000606030888885818110611c2957fe5b9050602002810190611c3b9190612a83565b604051611c499291906124fb565b600060405180830381855af49150503d8060008114611c84576040519150601f19603f3d011682016040523d82523d6000602084013e611c89565b606091505b50915091508180611c98575085155b611ca1826120b5565b90611cbf5760405162461bcd60e51b815260040161055e9190612653565b5081858481518110611ccd57fe5b60200260200101901515908115158152505080848481518110611cec57fe5b60209081029190910101525050600101611c10565b50935093915050565b6001546001600160a01b031681565b6000811580611d3457505080820282828281611d3157fe5b04145b611d505760405162461bcd60e51b815260040161055e90612969565b92915050565b6000818303818312801590611d6b5750838113155b80611d805750600083128015611d8057508381135b611d9c5760405162461bcd60e51b815260040161055e906128f0565b9392505050565b80820382811115611d505760405162461bcd60e51b815260040161055e90612666565b60006060846001600160a01b031663a9059cbb8585604051602401611dec9291906125a0565b6040516020818303038152906040529060e01b6020820180516001600160e01b038381831617835250505050604051611e25919061250b565b6000604051808303816000865af19150503d8060008114611e62576040519150601f19603f3d011682016040523d82523d6000602084013e611e67565b606091505b5091509150818015611e91575080511580611e91575080806020019051810190611e91919061224f565b611ead5760405162461bcd60e51b815260040161055e906126ba565b5050505050565b600080821215611ed65760405162461bcd60e51b815260040161055e90612695565b5090565b60006001600160801b03821115611ed65760405162461bcd60e51b815260040161055e906127aa565b8181016001600160801b038083169082161015611d505760405162461bcd60e51b815260040161055e906127e1565b60006001600160401b03821115611ed65760405162461bcd60e51b815260040161055e90612882565b81810181811015611d505760405162461bcd60e51b815260040161055e906127e1565b6000828201818312801590611f935750838112155b80611fa85750600083128015611fa857508381125b611d9c5760405162461bcd60e51b815260040161055e906126f1565b60006060856001600160a01b03166323b872dd868686604051602401611fec9392919061253b565b6040516020818303038152906040529060e01b6020820180516001600160e01b038381831617835250505050604051612025919061250b565b6000604051808303816000865af19150503d8060008114612062576040519150601f19603f3d011682016040523d82523d6000602084013e612067565b606091505b5091509150818015612091575080511580612091575080806020019051810190612091919061224f565b6120ad5760405162461bcd60e51b815260040161055e90612934565b505050505050565b60606044825110156120fb575060408051808201909152601d81527f5472616e73616374696f6e2072657665727465642073696c656e746c790000006020820152611154565b60048201915081806020019051810190611d50919061232a565b604080516060810182526000808252602082018190529181019190915290565b60008083601f840112612146578182fd5b5081356001600160401b0381111561215c578182fd5b602083019150836020808302850101111561217657600080fd5b9250929050565b600080600060608486031215612191578283fd5b833561219c81612af3565b925060208401356121ac81612b0b565b915060408401356121bc81612b0b565b809150509250925092565b6000806000604084860312156121db578283fd5b83356001600160401b038111156121f0578384fd5b6121fc86828701612135565b90945092505060208401356121bc81612b0b565b60008060208385031215612222578182fd5b82356001600160401b03811115612237578283fd5b61224385828601612135565b90969095509350505050565b600060208284031215612260578081fd5b8151611d9c81612b0b565b60006020828403121561227c578081fd5b8151611d9c81612af3565b600080600080600080600080610100898b0312156122a3578384fd5b88356122ae81612af3565b975060208901356122be81612af3565b965060408901356122ce81612af3565b9550606089013594506080890135935060a089013560ff811681146122f1578384fd5b979a969950949793969295929450505060c08201359160e0013590565b60006020828403121561231f578081fd5b8135611d9c81612af3565b60006020828403121561233b578081fd5b81516001600160401b0380821115612351578283fd5b818401915084601f830112612364578283fd5b815181811115612372578384fd5b604051601f8201601f191681016020018381118282101715612392578586fd5b6040528181528382016020018710156123a9578485fd5b6123ba826020830160208701612ac7565b9695505050505050565b6000602082840312156123d5578081fd5b5035919050565b6000602082840312156123ed578081fd5b5051919050565b60008060408385031215612406578182fd5b82359150602083013561241881612af3565b809150509250929050565b600080600060608486031215612437578081fd5b83359250602084013561244981612af3565b915060408401356121bc81612af3565b60008060006060848603121561246d578081fd5b833592506020840135915060408401356121bc81612af3565b6000806000806080858703121561249b578182fd5b843593506020850135925060408501356124b481612af3565b915060608501356124c481612b0b565b939692955090935050565b600081518084526124e7816020860160208601612ac7565b601f01601f19169290920160200192915050565b6000828483379101908152919050565b6000825161251d818460208701612ac7565b9190910192915050565b6001600160a01b0391909116815260200190565b6001600160a01b039384168152919092166020820152604081019190915260600190565b6001600160a01b0397881681529590961660208601526040850193909352606084019190915260ff16608083015260a082015260c081019190915260e00190565b6001600160a01b03929092168252602082015260400190565b604080825283519082018190526000906020906060840190828701845b828110156125f45781511515845292840192908401906001016125d6565b5050508381038285015280855161260b8184612a03565b91508192508381028201848801865b838110156126445785830385526126328383516124cf565b9487019492509086019060010161261a565b50909998505050505050505050565b600060208252611d9c60208301846124cf565b602080825260159082015274426f72696e674d6174683a20556e646572666c6f7760581b604082015260600190565b6020808252600b908201526a0496e7465676572203c20360ac1b604082015260600190565b6020808252601c908201527f426f72696e6745524332303a205472616e73666572206661696c656400000000604082015260600190565b60208082526021908201527f5369676e6564536166654d6174683a206164646974696f6e206f766572666c6f6040820152607760f81b606082015260800190565b6020808252601590820152744f776e61626c653a207a65726f206164647265737360581b604082015260600190565b60208082526029908201527f4d61737465724368656656323a206d696772617465642062616c616e6365206d6040820152680eae6e840dac2e8c6d60bb1b606082015260800190565b6020808252601c908201527f426f72696e674d6174683a2075696e74313238204f766572666c6f7700000000604082015260600190565b60208082526018908201527f426f72696e674d6174683a20416464204f766572666c6f770000000000000000604082015260600190565b6020808252818101527f4f776e61626c653a2063616c6c6572206973206e6f7420746865206f776e6572604082015260600190565b6020808252818101527f4f776e61626c653a2063616c6c657220213d2070656e64696e67206f776e6572604082015260600190565b6020808252601b908201527f426f72696e674d6174683a2075696e743634204f766572666c6f770000000000604082015260600190565b6020808252601d908201527f4d61737465724368656656323a206e6f206d69677261746f7220736574000000604082015260600190565b60208082526024908201527f5369676e6564536166654d6174683a207375627472616374696f6e206f766572604082015263666c6f7760e01b606082015260800190565b6020808252818101527f426f72696e6745524332303a205472616e7366657246726f6d206661696c6564604082015260600190565b60208082526018908201527f426f72696e674d6174683a204d756c204f766572666c6f770000000000000000604082015260600190565b81516001600160801b031681526020808301516001600160401b0390811691830191909152604092830151169181019190915260600190565b6001600160801b039390931683526001600160401b03918216602084015216604082015260600190565b90815260200190565b9485526001600160a01b0393841660208601529190921660408401526060830191909152608082015260a00190565b9182521515602082015260400190565b918252602082015260400190565b6001600160401b0393909316835260208301919091526001600160801b0316604082015260600190565b6000808335601e19843603018112612a99578283fd5b8301803591506001600160401b03821115612ab2578283fd5b60200191503681900382131561217657600080fd5b60005b83811015612ae2578181015183820152602001612aca565b838111156111895750506000910152565b6001600160a01b0381168114612b0857600080fd5b50565b8015158114612b0857600080fdfea264697066735822122069c25d8c53a52c6906cbc9d8e4723755faf67f44d72100952b05a94bd7a7292164736f6c634300060c0033",
  "devdoc": {
    "kind": "dev",
    "methods": {
      "add(uint256,address,address)": {
        "params": {
          "_lpToken": "Address of the LP ERC-20 token.",
          "_rewarder": "Address of the rewarder delegate.",
          "allocPoint": "AP of the new pool."
        }
      },
      "constructor": {
        "params": {
          "_apes": "The APES token contract address."
        }
      },
      "deposit(uint256,uint256,address)": {
        "params": {
          "amount": "LP token amount to deposit.",
          "pid": "The index of the pool. See `poolInfo`.",
          "to": "The receiver of `amount` deposit benefit."
        }
      },
      "emergencyWithdraw(uint256,address)": {
        "params": {
          "pid": "The index of the pool. See `poolInfo`.",
          "to": "Receiver of the LP tokens."
        }
      },
      "harvest(uint256,address)": {
        "params": {
          "pid": "The index of the pool. See `poolInfo`.",
          "to": "Receiver of Apes rewards."
        }
      },
      "massUpdatePools(uint256[])": {
        "params": {
          "pids": "Pool IDs of all to be updated. Make sure to update all active pools."
        }
      },
      "migrate(uint256)": {
        "params": {
          "_pid": "The index of the pool. See `poolInfo`."
        }
      },
      "pendingApes(uint256,address)": {
        "params": {
          "_pid": "The index of the pool. See `poolInfo`.",
          "_user": "Address of user."
        },
        "returns": {
          "pending": "APES reward for a given user."
        }
      },
      "set(uint256,uint256,address,bool)": {
        "params": {
          "_allocPoint": "New AP of the pool.",
          "_pid": "The index of the pool. See `poolInfo`.",
          "_rewarder": "Address of the rewarder delegate.",
          "overwrite": "True if _rewarder should be `set`. Otherwise `_rewarder` is ignored."
        }
      },
      "setApesPerSecond(uint256)": {
        "params": {
          "_apesPerSecond": "The amount of apes to be distributed per second."
        }
      },
      "setMigrator(address)": {
        "params": {
          "_migrator": "The contract address to set."
        }
      },
      "updatePool(uint256)": {
        "params": {
          "pid": "The index of the pool. See `poolInfo`."
        },
        "returns": {
          "pool": "Returns the pool that was updated."
        }
      },
      "withdraw(uint256,uint256,address)": {
        "params": {
          "amount": "LP token amount to withdraw.",
          "pid": "The index of the pool. See `poolInfo`.",
          "to": "Receiver of the LP tokens."
        }
      },
      "withdrawAndHarvest(uint256,uint256,address)": {
        "params": {
          "amount": "LP token amount to withdraw.",
          "pid": "The index of the pool. See `poolInfo`.",
          "to": "Receiver of the LP tokens and APES rewards."
        }
      }
    },
    "stateVariables": {
      "totalAllocPoint": {
        "details": "Total allocation points. Must be the sum of all allocation points in all pools."
      }
    },
    "version": 1
  },
  "userdoc": {
    "kind": "user",
    "methods": {
      "Apes()": {
        "notice": "Address of Apes contract."
      },
      "add(uint256,address,address)": {
        "notice": "Add a new LP to the pool. Can only be called by the owner. DO NOT add the same LP token more than once. Rewards will be messed up if you do."
      },
      "deposit(uint256,uint256,address)": {
        "notice": "Deposit LP tokens to MCV2 for APES allocation."
      },
      "emergencyWithdraw(uint256,address)": {
        "notice": "Withdraw without caring about rewards. EMERGENCY ONLY."
      },
      "harvest(uint256,address)": {
        "notice": "Harvest proceeds for transaction sender to `to`."
      },
      "lpToken(uint256)": {
        "notice": "Address of the LP token for each MCV2 pool."
      },
      "massUpdatePools(uint256[])": {
        "notice": "Update reward variables for all pools. Be careful of gas spending!"
      },
      "migrate(uint256)": {
        "notice": "Migrate LP token to another LP contract through the `migrator` contract."
      },
      "pendingApes(uint256,address)": {
        "notice": "View function to see pending APES on frontend."
      },
      "poolInfo(uint256)": {
        "notice": "Info of each MCV2 pool."
      },
      "poolLength()": {
        "notice": "Returns the number of MCV2 pools."
      },
      "rewarder(uint256)": {
        "notice": "Address of each `IRewarder` contract in MCV2."
      },
      "set(uint256,uint256,address,bool)": {
        "notice": "Update the given pool's APES allocation point and `IRewarder` contract. Can only be called by the owner."
      },
      "setApesPerSecond(uint256)": {
        "notice": "Sets the apes per second to be distributed. Can only be called by the owner."
      },
      "setMigrator(address)": {
        "notice": "Set the `migrator` contract. Can only be called by the owner."
      },
      "updatePool(uint256)": {
        "notice": "Update reward variables of the given pool."
      },
      "userInfo(uint256,address)": {
        "notice": "Info of each user that stakes LP tokens."
      },
      "withdraw(uint256,uint256,address)": {
        "notice": "Withdraw LP tokens from MCV2."
      },
      "withdrawAndHarvest(uint256,uint256,address)": {
        "notice": "Withdraw LP tokens from MCV2 and harvest proceeds for transaction sender to `to`."
      }
    },
    "notice": "The (older) MasterChef contract gives out a constant number of APES tokens per block. It is the only address with minting rights for APES. The idea for this MasterChef V2 (MCV2) contract is therefore to be the owner of a dummy token that is deposited into the MasterChef V1 (MCV1) contract. The allocation point for this pool on MCV1 is the total allocation point for all pools that receive double incentives.",
    "version": 1
  },
  "storageLayout": {
    "storage": [
      {
        "astId": 149,
        "contract": "contracts/MiniChefV2.sol:MiniChefV2",
        "label": "owner",
        "offset": 0,
        "slot": "0",
        "type": "t_address"
      },
      {
        "astId": 151,
        "contract": "contracts/MiniChefV2.sol:MiniChefV2",
        "label": "pendingOwner",
        "offset": 0,
        "slot": "1",
        "type": "t_address"
      },
      {
        "astId": 2142,
        "contract": "contracts/MiniChefV2.sol:MiniChefV2",
        "label": "migrator",
        "offset": 0,
        "slot": "2",
        "type": "t_contract(IMigratorChef)2108"
      },
      {
        "astId": 2146,
        "contract": "contracts/MiniChefV2.sol:MiniChefV2",
        "label": "poolInfo",
        "offset": 0,
        "slot": "3",
        "type": "t_array(t_struct(PoolInfo)2137_storage)dyn_storage"
      },
      {
        "astId": 2150,
        "contract": "contracts/MiniChefV2.sol:MiniChefV2",
        "label": "lpToken",
        "offset": 0,
        "slot": "4",
        "type": "t_array(t_contract(IERC20)337)dyn_storage"
      },
      {
        "astId": 2154,
        "contract": "contracts/MiniChefV2.sol:MiniChefV2",
        "label": "rewarder",
        "offset": 0,
        "slot": "5",
        "type": "t_array(t_contract(IRewarder)3320)dyn_storage"
      },
      {
        "astId": 2161,
        "contract": "contracts/MiniChefV2.sol:MiniChefV2",
        "label": "userInfo",
        "offset": 0,
        "slot": "6",
        "type": "t_mapping(t_uint256,t_mapping(t_address,t_struct(UserInfo)2130_storage))"
      },
      {
        "astId": 2164,
        "contract": "contracts/MiniChefV2.sol:MiniChefV2",
        "label": "totalAllocPoint",
        "offset": 0,
        "slot": "7",
        "type": "t_uint256"
      },
      {
        "astId": 2166,
        "contract": "contracts/MiniChefV2.sol:MiniChefV2",
        "label": "apesPerSecond",
        "offset": 0,
        "slot": "8",
        "type": "t_uint256"
      }
    ],
    "types": {
      "t_address": {
        "encoding": "inplace",
        "label": "address",
        "numberOfBytes": "20"
      },
      "t_array(t_contract(IERC20)337)dyn_storage": {
        "base": "t_contract(IERC20)337",
        "encoding": "dynamic_array",
        "label": "contract IERC20[]",
        "numberOfBytes": "32"
      },
      "t_array(t_contract(IRewarder)3320)dyn_storage": {
        "base": "t_contract(IRewarder)3320",
        "encoding": "dynamic_array",
        "label": "contract IRewarder[]",
        "numberOfBytes": "32"
      },
      "t_array(t_struct(PoolInfo)2137_storage)dyn_storage": {
        "base": "t_struct(PoolInfo)2137_storage",
        "encoding": "dynamic_array",
        "label": "struct MiniChefV2.PoolInfo[]",
        "numberOfBytes": "32"
      },
      "t_contract(IERC20)337": {
        "encoding": "inplace",
        "label": "contract IERC20",
        "numberOfBytes": "20"
      },
      "t_contract(IMigratorChef)2108": {
        "encoding": "inplace",
        "label": "contract IMigratorChef",
        "numberOfBytes": "20"
      },
      "t_contract(IRewarder)3320": {
        "encoding": "inplace",
        "label": "contract IRewarder",
        "numberOfBytes": "20"
      },
      "t_int256": {
        "encoding": "inplace",
        "label": "int256",
        "numberOfBytes": "32"
      },
      "t_mapping(t_address,t_struct(UserInfo)2130_storage)": {
        "encoding": "mapping",
        "key": "t_address",
        "label": "mapping(address => struct MiniChefV2.UserInfo)",
        "numberOfBytes": "32",
        "value": "t_struct(UserInfo)2130_storage"
      },
      "t_mapping(t_uint256,t_mapping(t_address,t_struct(UserInfo)2130_storage))": {
        "encoding": "mapping",
        "key": "t_uint256",
        "label": "mapping(uint256 => mapping(address => struct MiniChefV2.UserInfo))",
        "numberOfBytes": "32",
        "value": "t_mapping(t_address,t_struct(UserInfo)2130_storage)"
      },
      "t_struct(PoolInfo)2137_storage": {
        "encoding": "inplace",
        "label": "struct MiniChefV2.PoolInfo",
        "members": [
          {
            "astId": 2132,
            "contract": "contracts/MiniChefV2.sol:MiniChefV2",
            "label": "accApesPerShare",
            "offset": 0,
            "slot": "0",
            "type": "t_uint128"
          },
          {
            "astId": 2134,
            "contract": "contracts/MiniChefV2.sol:MiniChefV2",
            "label": "lastRewardTime",
            "offset": 16,
            "slot": "0",
            "type": "t_uint64"
          },
          {
            "astId": 2136,
            "contract": "contracts/MiniChefV2.sol:MiniChefV2",
            "label": "allocPoint",
            "offset": 24,
            "slot": "0",
            "type": "t_uint64"
          }
        ],
        "numberOfBytes": "32"
      },
      "t_struct(UserInfo)2130_storage": {
        "encoding": "inplace",
        "label": "struct MiniChefV2.UserInfo",
        "members": [
          {
            "astId": 2127,
            "contract": "contracts/MiniChefV2.sol:MiniChefV2",
            "label": "amount",
            "offset": 0,
            "slot": "0",
            "type": "t_uint256"
          },
          {
            "astId": 2129,
            "contract": "contracts/MiniChefV2.sol:MiniChefV2",
            "label": "rewardDebt",
            "offset": 0,
            "slot": "1",
            "type": "t_int256"
          }
        ],
        "numberOfBytes": "64"
      },
      "t_uint128": {
        "encoding": "inplace",
        "label": "uint128",
        "numberOfBytes": "16"
      },
      "t_uint256": {
        "encoding": "inplace",
        "label": "uint256",
        "numberOfBytes": "32"
      },
      "t_uint64": {
        "encoding": "inplace",
        "label": "uint64",
        "numberOfBytes": "8"
      }
    }
  }
}